:100000000C9483380C94AB380C94AB380C94AB380C
:100010000C94AB380C94AB380C94AB380C94AB38D4
:100020000C94AB380C94AB380C94AB380C941F5137
:100030000C94AB380C94AB380C94AB380C94AB38B4
:100040000C94AB380C94AB380C94AB380C94AB38A4
:100050000C94AB380C94AB380C94AB380C94AB3894
:100060000C94AB380C94AB380C943D390C94AB38F1
:100070000C94AB380C94AB380C94AB38943C983C53
:10008000E33CE33CE33CB63CAC3CDC3C9F3CA63C64
:10009000E33CE33CBF3CE33CE33CE33CE33CD43C9B
:1000A000E33CDF3C52555655F5555A555E55625561
:1000B000F555F55500000000000061016E01630177
:1000C0001901580100000000E20098005D019B0149
:1000D00000004A0127013101440100002E01000007
:1000E0009101980159005F008E00AB00BB006500D4
:1000F000740070726F6772616D6D65720000470009
:1001000000ED47000000000000ED470000A8490096
:10011000007D4A00007D4A0000064A00007D4A003A
:10012000007E4D0000FF4A00007F4800007F48002D
:10013000007F4800007F4800007F4800007F4800A3
:10014000007F4800007F4800001D4900008D4B00E3
:1001500000D64B0000304D0000ED4D0000514C002A
:100160000000002204000001007F00030102E818E3
:100170000205040B000A0582A20400220400000507
:10018000007F00030106E81802050407007F003520
:100190000803000D06060708003F01800909003F1B
:1001A00001820A0A003F0181A10C007F0078980DAE
:1001B000003F0102020E003F020B0B0F003F020C3A
:1001C0000C10007F000E0D11007F000F0F12007F3A
:1001D00000101013007F00111114007F000E0D1588
:1001E000007F000F0F16007F00101017007F001116
:1001F0001118001407000019008F0812121A007F4E
:10020000000E0D1B0002141C1C1C00140700001D16
:10021000008F0812121E007F000E0D1F0002141C1A
:100220001C23000B09151320001D0A1716210012AC
:100230000B191822C13F021B1A640006101C1C6512
:1002400023F80E272666000512282867007F001B6A
:100250001A6800030C29296901040205046A000FC9
:10026000132A2A6B0012112C2B8EF40C0230308FC3
:1002700000200D313190003F0133329100010334F1
:100280003492817F02353593001001373694000D8A
:100290000F3838950007152E2E9600100139399920
:1002A0000001033A3A970006163F3F980002173BB9
:1002B0003B6D000F012D2D6C0110012F2F610001EE
:1002C0000906075E00210A8B8B5F00210A8C8C6077
:1002D00000091A8D8D9D01100149499E007F004B38
:1002E0004B9F0110014A4AA0007F004C4C0C007F3C
:1002F0000078980D003F0102020E003F020B0B54E4
:10030000007F005B5B54007F00989855003F01021E
:10031000025C00051843415D00051944425C00047D
:100320001C1C1C5D000F1B575854007F0055535573
:10033000003F0156540C007F0078985C0001181CA7
:100340001C540001031D1D550001031E1E0C007FDF
:100350000078980D003F0102025C000E1D1C1C5D20
:1003600000031E1F1F54007F00202055003F012165
:10037000215C000F0122235D000F012425B966BF17
:1003800066C966D366D766DD66E166E566EE66F544
:1003900066FD6606670F6718671F67236729673161
:1003A0006739673E674967536758675F676367697F
:1003B000676D67746778677D6787678A67926797F5
:1003C000679D67A167AA67AE67B867BE67C267C95E
:1003D00067D367DB67E067E467EA67F067F767FEA4
:1003E00067036809680D6814681B68256829683206
:1003F0006838683D68456852685F6865686C68740D
:10040000687B68826886688A689568A068AA68B30D
:1004100068B768BB68BE68C168D068D968DE68E53F
:1004200068EE68FA6803690C691069146918692133
:1004300069256929692D693169356939693D6941DC
:1004400069456949694D695169556959695D6961CC
:1004500069656969696D69716975697B69826987AF
:10046000698C69916996699D69A069A769AE69B24D
:1004700069B669BA69BE69C169C469C669C969CD25
:1004800069D169D569D969DD691F67E169E569E9FC
:1004900069ED69F169F569F969FD69016A056A093A
:1004A0006A0D6A116A156A186A1B6A1F6A236AB2A2
:1004B000692A6A2F6A346A396A3E6A456AC9694A92
:1004C0006A506A576A5C6A616A1867666A6C6A721F
:1004D0006A786A7E6A856A8C6A936A9A6AA16AA750
:1004E0006AAE6AB56ABC6AC36ACA6AD16AD86ADF88
:1004F0006AE66AEC6AF06AF46AF86AFC6AE169E53D
:1005000069006B046B086B0C6B106B146B186B1C25
:100510006BD969DD69206B246B286B2C6B306B34D5
:100520006BCD69E969ED69386B3C6B406B446B4896
:100530006B4C6B506B546B586B5C6B5F6B626B6698
:100540006B666A6C6A6A6B716B786B0C6B7F6B861F
:100550006B8D6B946B5C6A616A9B6BA06BA56BAADD
:100560006BAF6BB46B4A6A726A786AB96BBE6BC563
:100570006BCA6BCF6BD56BDB6BE16BE76BED6BF134
:100580006BF56BFA6BFF6B0F6C206C266C2F6C3568
:100590006C436C4D6C5D6C656C6C6C716C796C7ED5
:1005A0006C806C916CA26CA96CB06CB76CBE6CC5A5
:1005B0006CC96CCE6C116AD36CD86CDC6CE06CE5E9
:1005C0006CEA6CEE6CF56CFC6C036D0A6D0C6B0EDA
:1005D0006D006B156D1C6D206D266D2B6D316D38AA
:1005E0006D3A6D3C6D406D436D496D4F6D546D5A64
:1005F0006D606D676D6E6D746D7B6D826D896D90D4
:100600006D966D9D6DA46DAA6DB26D1F6AB76DBDBF
:100610006DFD69C46D006BC96DEA67CE6DD36DD792
:100620006DDB6DDF6DE36DE76DEB6DEF6DF36DF71A
:100630006DFB6DFF6D046E096E0B6E0D6E106EFD21
:1006400069126E046B546B156E086B586B196E1D36
:100650006E236E2A6E2F6E356E396E3E6E426E4977
:100660006E506E556E5B6E606E676E6D6E876771F5
:100670006E776E7E6E856E8C6E926E976E9D6EA29C
:100680006EA76EAD6EB36E4A6AB76EBD6EC46ECBAA
:100690006ED16ED86EDF6EE66EED6EF46EFB6E217F
:1006A00069016F056F096F0D6F116F156F196F205D
:1006B0006F256F2C6F326F376F3E6F456F4B6F52E8
:1006C0006F596F606F666F6C6F726F796F7F6F8439
:1006D0006F8B6F926F996FA06FA76FAE6FB56FBC86
:1006E0006FC36FCA6FD06FD76FDE6FE56FEC6FF3BC
:1006F0006FFA6F0170040004000400040005000597
:1007000000050006000600070007000700080008B3
:1007100000090009000A000B000B000C000D000E80
:10072000000E000F0010001100120014001500163A
:1007300000170019001A001C001E001F00210023D2
:1007400000250028002A002D002F00320035003936
:10075000003C004000430047004C00500055005A48
:1007600000600065006C00720079008000880090D5
:10077000009900A200AC00B600C100CC00D900E690
:1007800000F3000201110122013301450159016EFC
:100790000184019B01B301CD01E901060225024656
:1007A0000269028E02B502DF020B0339036B039F5D
:1007B00003D603110450049204D80422057005C422
:1007C000051C067906DD064607B5072B08A8082D87
:1007D00009B9094E0AEC0A930B450C010DC80D9B93
:1007E0000E7A0F671063116D128713B214EF153F65
:1007F00017A3181C1AFFFFD8492140E237DB30D875
:100800002AAF253D21651D101A2B17A5146F1280E4
:1008100010CC0E4D0DFA0BCE0AC409D808050849B4
:1008200007A1060A0683050A059C043A04E1039021
:100830000347030503C9029202600232020902E380
:1008400001C001A001830168014F01390124011099
:1008500001FF00EE00DF00D100C400B800AC00A230
:100860000098008F0087007F00770071006A0064A5
:10087000005F005A00550050004C00480044004002
:10088000003D003A003700340032002F002D002BCD
:10089000002900270025002300210020001E001D44
:1008A000001C001A0019001800170016001500148B
:1008B000001300120012001100100010000F000EB3
:1008C000000E000D000D000C000C000B000B000AC8
:1008D000000A0009000900090008000700070006D7
:1008E00000060005000500040004000300030002E8
:1008F0000002000100602BB12B022C532CA62CF817
:100900002C4C2DA02DF52D4A2EA02EF62E4D2FA5C8
:100910002FFD2F5630B0300A316531C1311D327A8A
:1009200032D83236339533F5335534B63418357BF7
:1009300035DE354236A7360C377237D9374138A9FC
:100940003812397C39E639523ABE3A2B3B993B078B
:100950003C773CE73C583DCA3D3C3EB03E243F9985
:100960003F0F408640FE407641F0416A42E54261D9
:1009700043DE435C44DB445B45DC455D46E0466367
:1009800047E8476D48F3487B49034A8C4A174BA216
:100990004B2E4CBB4C4A4DD94D6A4EFB4E8E4F21CF
:1009A00050B6504C51E2517A521353AD534954E56D
:1009B0005482552156C1562000400080008100B568
:1009C00000C900000101016A019201C00100020298
:1009D000024002C002D40200032403760300043E56
:1009E00004B6040005A805000800000F0005001467
:1009F00000EFFFFEFFF4FF02001100ECFFFBFFF130
:100A0000FF00000F000500F9FF0A00FEFFF4FF02DF
:100A1000001100ECFFFBFF0C0000000000000000D4
:100A200000C0FF000000000000000000000000C047
:100A3000FF0000000000000000C0FF0000000000F8
:100A400000000000000000000000000000000000A6
:100A500000C0FF0000000000000000C0FF00000018
:100A6000000000F4FFFF7FFF7FEFFFFEFFFF7F022C
:100A700000F6FFFF7FFF7FF1FF00000F00FF7FFF09
:100A80007FFF7FFEFFFF7F02001100FF7FFF7FFFE0
:100A90007F00000F00FF7FFF7FEFFFFF7FF4FFFF6E
:100AA0007FFF7FECFFFF7FF1FF0000F4FFFF7FFF80
:100AB0007FEFFFFF7FF4FF0200F6FFFF7FFF7FF174
:100AC000FF00000F00FF7FFF7FEFFFFF7FF4FF02BB
:100AD000001100FF7FFF7FF1FF0000FF7F0500FF97
:100AE0007FEFFFFEFFFF7F0200FF7F0700FF7FF128
:100AF000FF0000FF7F0500FF7F0A00FF7F0F00025D
:100B000000FF7F0700FF7F0C000000FF7FEAFFF976
:100B1000FFFF7FFEFFFF7F0200FF7FECFFFBFFFF79
:100B20007F0000FF7F05001400FF7FFEFFFF7F02B4
:100B300000FF7F07001600FF7F0000FF7F0500F920
:100B4000FFFF7FFEFFFF7F0200F6FFFF7FFBFFFF3F
:100B50007F0000FF7F0500FF7FEFFFFEFFFF7F02AA
:100B600000FF7FECFFFBFFFF7F0000FF7F0500FF22
:100B70007FEFFFFEFFFF7F0200FF7F0700FBFF0C00
:100B8000000000FF7F0500F9FFFF7FFEFFFF7F02EF
:100B900000FF7FECFFFBFFF1FF0000F4FFFF7FF998
:100BA000FFFF7FFEFFFF7FFF7FFF7FECFFFBFFFF6D
:100BB0007F0000FF7F0500F9FFFF7FFEFFFF7F0240
:100BC00000FF7FFF7FFF7FF1FF0000FF7FFF7FFFC0
:100BD0007FEFFFFEFFFF7F0200F6FFFF7FFBFFFFBF
:100BE0007F0000FF7F0500FF7FFF7FFF7FF4FF0294
:100BF00000FF7FECFFFBFFFF7F0000FF7F0500F998
:100C0000FFFF7FFEFFFF7F0200FF7F0700FBFFFF6C
:100C10007F0000FF7F0500FF7FEFFFFEFFFF7F02E9
:100C200000F6FFFF7FFF7FF1FF0000FF7F0500FF61
:100C30007F0A00FEFFFF7FFF7FF6FFFF7FFBFFFFC6
:100C40007F0000F4FFFF7FFF7FFF7FFEFFFF7F023B
:100C500000FF7FFF7FFBFFFF7F0000F4FFFF7FF9B6
:100C6000FFFF7FFF7FFF7F0200FF7FFF7FFBFFFF14
:100C70007F0000FF7FFF7FF9FFFF7FFEFFFF7F0206
:100C800000FF7FFF7FFBFFFF7F0000FF7FFF7FF9FB
:100C9000FFFF7FFEFFF4FFFF7FF6FFFF7FFF7FFF79
:100CA0007F0000FF7FFF7FF9FFEFFFFEFFFF7FFF69
:100CB0007FFF7FECFFFBFFFF7F55557777F5F5B59D
:100CC000B56F6F0909494949522549DBDBDF7611C8
:100CD000A919D5C16F01D10E012C014A016801A4E7
:100CE00001E0015802D002C0037F007F0081FF8134
:100CF000FF7F007F0081FF81FF7F007F0081FF81F8
:100D0000FF7F007F0081FF81FF7F0081FF7F0081E7
:100D1000FF7F0081FF7F0081FF7F0081FF7F0081D7
:100D2000FF7F0081FF7F0081FFC1FFC1FF7F0000C7
:100D30000081FF000000005800000000005800CEB5
:100D4000FFA8FF00005800000013002C005D00FC0D
:100D5000FF2000CBFFA6FF81FF750020009AFFCB8C
:100D6000FF6900CBFF5D00CBFF58009BFF6B00A12C
:100D7000FF5800A8FF3200DAFF4100A8FF6500A17C
:100D8000FF650081FF3F00E1FF4600ACFF5400908B
:100D9000FF54009EFF70009EFF3600BAFF7F00AC3C
:100DA000FF7F0090FF5400ACFFF506F507F508B78C
:100DB00009E909010A190A310A490A610A790A91FD
:100DC0000AA90AC10AD90AF10A090B210B390B0930
:100DD0000B510B690B810B990BB10BC90BE10BF993
:100DE0000B110C290C410C590C710C890CA10CF144
:100DF0000AB90CD70CE90C090D290D490D690D89AB
:100E00000D000000000000000000000000000000D5
:100E100000000202030304050607080A0C0E111461
:100E200018000304050607090A0C0F12151A1F25DE
:100E30002D0004050608090B0D1013171C2228317C
:100E40003A00050607080A0C0F1115191E242C3547
:100E50003F0004050608090B0D1013171C2228314A
:100E60003A000304050607090A0C0F12151A1F257C
:100E70002D000202030304050607080A0C0E1114D4
:100E8000180000000000000000000000000000004A
:100E90000000FEFEFDFDFCFBFAF9F8F6F4F2EFECC3
:100EA000E800FDFCFBFAF9F7F6F4F1EEEBE6E1DB26
:100EB000D300FCFBFAF8F7F5F3F0EDE9E4DED8CF68
:100EC000C600FBFAF9F8F6F4F1EFEBE7E2DCD4CB7D
:100ED000C100FCFBFAF8F7F5F3F0EDE9E4DED8CF5A
:100EE000C600FDFCFBFAF9F7F6F4F1EEEBE6E1DB08
:100EF000D300FEFEFDFDFCFBFAF9F8F6F4F2EFEC90
:100F0000E8000101020203030404050608090B0DB1
:100F100010000101020203030404050608090B0D79
:100F200010000101020203030404050608090B0D69
:100F300010000101020203030404050608090B0D59
:100F400010000101020203030404050608090B0D49
:100F500010000101020203030404050608090B0D39
:100F600010000101020203030404050608090B0D29
:100F700010000101020203030404050608090B0D19
:100F80001000FFFFFEFEFDFDFCFCFBFAF8F7F5F399
:100F9000F000FFFFFEFEFDFDFCFCFBFAF8F7F5F3A9
:100FA000F000FFFFFEFEFDFDFCFCFBFAF8F7F5F399
:100FB000F000FFFFFEFEFDFDFCFCFBFAF8F7F5F389
:100FC000F000FFFFFEFEFDFDFCFCFBFAF8F7F5F379
:100FD000F000FFFFFEFEFDFDFCFCFBFAF8F7F5F369
:100FE000F000FFFFFEFEFDFDFCFCFBFAF8F7F5F359
:100FF000F000FFFFFEFEFDFDFCFCFBFAF8F7F5F349
:10100000F002020203020303040504070509070AAC
:101010000B0B0D0D111012151517191B1C201F2479
:101020002427292B2E30333537393E3F4146464B56
:101030004C515255595C5E6164686B6D7074777A7F
:101040007C818287898C9093949A9B9EA3A3A9A963
:10105000AEB1B2B6B9BBBFC0C3C7C8CBCDD1D2D475
:10106000D8D8DCDDDFE2E3E6E6E9EBEBEFEEF1F228
:10107000F3F5F5F6F9F7FBF9FCFBFCFDFDFDFEFED3
:10108000FEFDFFFEFDFDFEFCFDFBFBFAFAF8F8F6A7
:10109000F6F5F2F3F0EFEEECEAE9E7E6E2E2E0DDA6
:1010A000DBD9D7D4D3D0CECAC9C6C4C0BEBCB8B6AB
:1010B000B3B1ADAAA8A4A29E9C9995938F8D888761
:1010C00083807D7A7674716D6A6865605F5C58555F
:1010D00053504D4A4745423F3D39383532312D2B2B
:1010E0002A262523201F1D1A1A1616141310100D58
:1010F0000E0B0A0A0808060605040502040202028D
:1011000003011D1D1F1D1F1F1F2020202220232122
:101110002323232324252524262725272728272979
:1011200029282A292B2A2C2A2D2B2D2D2D2E2E2E07
:101130002F2F303030323031333232343432363592
:10114000313CF5FFFAF8FCF9F9F8F9F8F7F8F6F69A
:10115000F7F5F5F5F5F3F5F3F2F3F2F2F1F2F0F05D
:10116000F0EFF0EEEEEFEDEDECEEEBECEBEAECE9B0
:10117000EAE9E9E9E8E8E7E7E6E7E6E5E5E5E4E402
:10118000E4E3E2E3E2E2E0E2E0E0E0DFDFDFDDDF54
:10119000DCDEDDDBDDDBDBDBD9DBDAD8DAD8D7D9A7
:1011A000D6D8D6D6D5D6D5D5D3D4D4D3D2D3D1D2FA
:1011B000D1D1CFD2CECFD0CECDCECECCCDCDCACB4D
:1011C000CEC60901060606050707070907080A092A
:1011D000090A0B0B0B0B0D0B0E0D0D0E0E0F0F1046
:1011E0000F111011121113121314131415141616D3
:1011F00015171717171918181A191A1B1A1B1C1C60
:101200001B1E1C20212021222223212424232425CB
:101210002525262626272827272A28282B292A2B52
:101220002B2B2B2E2B2D2D2E2D302D302F312F30E3
:10123000332F333232333432353435343736333A70
:10124000383043ECFFF5F4F8F7F3F5F7F2F4F4F384
:10125000F2F3F2F1F2F1EFF1F0EFEFEFEEEEEDED90
:10126000EDEDEBECECEAEBEAE9EAE9E9E8E7E9E6DF
:10127000E7E7E6E5E6E4E5E5E3E3E4E2E2E3E1E12E
:10128000E1E0E1DFE0DEDFDEDEDEDCDEDBDDDBDC7D
:10129000DADBDAD9DAD9D8D9D8D7D7D8D5D6D6D6CD
:1012A000D4D5D3D5D3D3D3D2D2D1D1D2CFD1D0CF1D
:1012B000CED0CDCECECDCBCECCCBCBCCC9CBCBC66E
:1012C000C9D0BC1303080D07090D090B0C0C0B0E3C
:1012D0000C0D0E0F0D0F100F101110101311121313
:1012E00013131414141515161616161817181819A2
:1012F000181A191B1A1B1B1B1C1D1D1C1E1E1D2032
:101300001E201F201F1E201F211F231F23212421D9
:101310002423242426232725272528282629282A6C
:10132000282B282C2A2B2C2C2B2E2C2F2C2F2F2EFD
:10133000302F31303130343034303730373138318C
:101340003A313B32FEF5FDF3FDF3FCF2FAF3F9F22C
:10135000F8F2F6F2F5F1F4F2F2F2F0F2EFF1EFF06A
:10136000EEEFEDEFECEFEBEDEBECEAECEAEAE9E9BE
:10137000EAE7E9E7E8E6E8E4E8E4E5E5E5E2E5E30D
:10138000E2E3E2E1E1E2E0E0DFE1DDE0DDDFDDDD5F
:10139000DDDCDCDBDCDADBDADAD8DAD8D9D7D8D6B0
:1013A000D7D6D7D4D7D3D5D4D4D2D4D2D2D2D1D2FF
:1013B000CFD2CED1CDD1CCD1CAD1C9CFCACFC7CF50
:1013C000C6CFC5CE020B020C030C050C060D070D93
:1013D000080D0A0D0C0D0C0E0D0F0E0F100F101036
:1013E00012101311131115121514141516161616C2
:1013F00017181718181A181B191B191D1B1C1B1E50
:101400001C1F1C1F1F292827282B2B29292B2B2D7C
:101410002B2B2C2E2D2E2C2E302F2E2F30313130E9
:101420003032343231323435343432363835353482
:10143000383A3735373A3C3837373D3F3A35394314
:1014400043382C3C72B9EFFEF2E4E5EEF2ECE7E64D
:10145000EDECEBE5E7E9ECE6E6E5E8E8E6E4E3E712
:10146000E6E3E3E2E5E4E2E0E2E2E3DFE0DFE1E15C
:10147000DDDEDFDEDFDCDCDDDDDDDADADCDBDBD9A7
:10148000D8DADAD8D8D7D7D9D7D5D5D7D6D5D4D4EE
:10149000D4D5D3D2D2D4D2D2CFD1D2D1D0CDD0CF35
:1014A000D0CECCCECDCFCCCACBCECCC9CAC9CBCC7A
:1014B000C7C7C8CBC9C5C4C7CAC9C1C1C7CAC7BDC8
:1014C000BCC8D4C48D4711010E1C19120F121B1772
:1014D000151117191A1515181C1918171B1B1C198B
:1014E0001A1C1E1C1B1C1E1F1F1C1E1F21201F1F21
:1014F00021232121212324232224242625232626B7
:1015000027272528272A242526292A2A2C2A29295B
:101510002827282A2B2E2E2F2F2F2D2B2C2C2B2F0C
:101520003033333334332F302E2F3034353839398C
:1015300038353331313134393D4042403B372F2C3F
:101540002A313B506A85A6C2DBEEFAFEFDF7F0EACF
:10155000E5E2E5E5EAEDF0F0EEECE8E7E3E2E4E50C
:10156000E8E8E9EAE8E6E4E1E1DFE2E1E4E4E6E331
:10157000E3E1DFDDDDDDDDDFDFE1E0DFDEDCDBD988
:10158000D8DAD9DCDBDCDDD9DAD8D5D5D5D5D7D6D4
:10159000D9D8D7D7D4D2D2D0D1D1D2D5D4D4D4D10E
:1015A000D0CDCDCBCDCDD0D0D2D0D0CCCBC7C7C76E
:1015B000C8CACDCED0CFCAC8C2C0BFBFC3CBCFD59B
:1015C000D5D0C4AF977A5A3E2313060103090F16EC
:1015D0001B1D1B1B151310101114171A1C1D1D1A8F
:1015E0001818151718191C1F1F1F201D1C1B1C1B4A
:1015F0001D1F20232323222120201F2121242625D3
:10160000282725252424232B2C2B2B2A2928272661
:10161000262323232123212224232626282B2D2E73
:101620003033353538383A39393A37373632322F60
:101630002C2B29262624252426282B2F333A4048D4
:101640005159636F7984909CA6B2BCC7D0D9E1E8A8
:10165000EEF3F8F9FDFEFEFDFDFAF9F6F4EFEEEA21
:10166000E7E6E2E1DFDEDDDDDEDCDFE0DFE2E3E571
:10167000E5E7E8E9E9E9EAE8E9E7E6E4E4E1DFDE0D
:10168000DBDBD8D8D6D5D5D3D6D3D6D5D7D7D8DBEC
:10169000DADBDEDCDEDEDEDEDCDCDAD9D8D5D3D1A7
:1016A000CFCECACBC7C8C6C7C5C8C7C9CACDCED199
:1016B000D3D5D7D9DBDADCDBD9D8D6D0CBC8BEB905
:1016C000AEA79C91877B70645A4D433930271E1812
:1016D000110D0905030202020304080A0C0F131678
:1016E000171B1D1F21212322232221211F1F1B1D08
:1016F00019181917161617161819191B1C201F224E
:10170000242627282A2A2B2B4D4E4E515052545313
:1017100056565659595A5C5B5E5D606061626364FF
:1017200065666768686B6A6C6C6F6D7070727273F7
:101730007475767777797A7A7B7D7C7E807E8281FC
:1017400082838584868688888A898B8C8C8D8E8F0F
:10175000909092929295949596979898999A9B9C2E
:101760009B9E9D9F9FA0A1A1A3A2A4A5A4A7A5A95C
:10177000A7A8AAABA9ADABADAEAEAEB1AFB1B2B298
:10178000B2B4B5B4B5B6B8B6B8B9B9BABABCBABEDF
:10179000BCBDBEBFC0BFC0C2C0C4C1C4C4C4C5C636
:1017A000C5C7C7C8C8C9C9CACACBCBCCCCCECCCF99
:1017B000CDD0CFD0D0D1D1D2D2D3D3D4D4D4D5D50B
:1017C000D7D6D6D8D7D8DBD30901060807090C0B22
:1017D0000C0F10101213141617171A1A1B1D1F1EA8
:1017E00020222323252726292A2B2B2D2F2F303269
:1017F00033333537363A383B3B3D3E3F4041424438
:1018000043464747484B494D4C4E50515152545511
:10181000555659575A5A5C5C5E5E5E6260636265FB
:1018200064676668686B696C6D6D6E6F70717174FA
:10183000727675757878797A7A7B7D7D7E7E818007
:1018400081828483858686878889898B8B8B8E8E1F
:101850008D909090929293949496969699979A9947
:101860009B9B9C9D9D9F9EA0A1A0A2A2A4A3A5A678
:10187000A4A8A7A8A8AAAAAAACABADAEADAFAFAFBB
:10188000B1B2B1B2B3B4B4B5B5B6B7B8B6BAB8BA06
:10189000BABBBCBBBDBCBFBDC0BEC1C0C0C3C1C361
:1018A000C3C4C4C4C6C6C5C8C7C7C9C9C9C9CBCBC8
:1018B000CBCBCDCCCECDCECFCFCED1D1CFD3D1D13E
:1018C000D4D3D2D4D7D1D5DCCA13020A0E090E0F55
:1018D000100F141313171618191B1B1D1D1F202280
:1018E00022232526262929292D2C2D2F303132334C
:1018F0003435383639393C3B3C3F3F404142434424
:1019000046464749494A4C4D4D4E4D504F52515312
:101910005455565659595A5A5D5C5E5F5F62616311
:10192000636566666769696A6C6B6E6D706F71710D
:10193000737473767677777A797B7B7C7D7F7E8014
:1019400080828283848585878788898A8A8C8C8D2A
:101950008D8F908F9291939394969497979899994D
:101960009A9C9A9E9C9E9F9FA0A1A2A1A4A3A5A47D
:10197000A7A5A8A8A8A9ABA9ACACADACAFAEAFB0B9
:10198000B0B2B1B3B3B3B5B5B5B7B6B8B7B9B9BB03
:10199000B9BCBBBDBCBDBEBFBFC0C0C0C2C1C4C15D
:1019A000C5C3C6C3C8C4C9C5C9C8C9C8CCC8CCCBBF
:1019B000CCCCCDCECCD0CDD0CFD1CFD4CED4D1D530
:1019C000D0D7D0D9D1D9D2DBD1DD000C030D07108F
:1019D00009110D130F1513161618181C191E1D1EAC
:1019E00021212223252527282A282E2B2E2E31306F
:1019F000333235353737393A3A3D3C3F3F40414342
:101A000042464547464B484B4C4D4E535254565711
:101A10005757595A5B5D5A5E5F60606062636465E8
:101A200064666869676A6B6B6E6B6E6F70717171FB
:101A3000737574757677787979797C7C7D7C7F7E17
:101A400081808181848483858687878889888C8B3F
:101A50008B8C8D8F8E908F90939292949397959577
:101A600098979999999A9C9C9C9C9E9EA0A09EA2B6
:101A7000A2A2A2A4A3A6A5A5A7A7A8A8A9A9AAAC03
:101A8000ABABACADAFAEAEAFB1B0B1B2B0B5B3B35E
:101A9000B4B5B6B6B7B5B8B9B9B8B9BABCBCBABBC3
:101AA000BDBFBDBEBDBFC2C0BFBFC3C4C1C2C2C532
:101AB000C6C4C4C3C9C7C7C4C8C9CCC7C6C9CECDAC
:101AC000C9C5CDD3D0C5C5D3DFD2964910020F1EEC
:101AD0001E1413191F201B192123241F2225292717
:101AE00026272B2D2D2B2C313231313235383536FE
:101AF000383B3B3A3C3D40403F41424445454547E9
:101B0000494A494A4D4D4E4E505053534F505054F0
:101B1000535858595A5A5B5A5A5C5C5E6160656307
:101B200065666564676569686B6C6F6E706F706F12
:101B300071707373757778797A797A7A7A7B7C7E2B
:101B40007E8281838482848384858588888A8C8C44
:101B50008C8D8C8D8C8F8E91919494959596959576
:101B6000959798999A9C9D9E9D9E9E9D9DA09FA2B3
:101B7000A2A4A6A5A6A6A5A5A6A6A7AAABABAEADF0
:101B8000ADADADACAEACB0B1B1B5B3B5B5B4B3B34A
:101B9000B4B5B5B8B9BBBCBBBCBAB9BBB8BCBCBEAC
:101BA000C0C2C2C3C1C1C0BEBFC0C3C4C7C9C9CA05
:101BB000C7C6C4C2C4C5C7CBCFD1D1D0CDCBC4C595
:101BC000C3C8CCD4DCE1E1DCCEB99F805F422514F0
:101BD00005010308111820232323201B1B191B1E9A
:101BE00022252B2B2C2D2B29292A292E2F33353733
:101BF000383738373538373B3C3F4143444343431C
:101C000043434646494B4C4F4F4F4F4E5051505116
:101C1000505150505250515353545658585B5E5D7A
:101C20006262656668696A6C6C6D6D6E6E6D6F6D13
:101C30006F6E6E6F6F70717273747678797A7E7E64
:101C40007F838285858687888888888A878A878A2D
:101C5000888A888B8B8B8D8E9090939496969A9A87
:101C60009C9D9DA09EA1A0A0A1A19FA19FA19FA07E
:101C7000A0A1A2A1A3A5A5A7A8ABACADAFB1B2B3DB
:101C8000B4B6B5B6B6B6B6B5B6B4B4B4B3B3B3B409
:101C9000B3B5B5B7B8BABBBDC0C1C3C5C7C8C9CB5A
:101CA000C9CBCBC9C9C9C6C6C4C3C1C1C1BFC1C0E4
:101CB000C1C4C6C7CCCED1D5DADBE0E2E4E5E5E5C8
:101CC000E3E1DAD8CEC8BEB5A89D908376695A4FB5
:101CD00042362C2219130B08040201020105080BDD
:101CE0000E13181B1F25272A2D303132323433337F
:101CF000323130312F2E302E2F3031333337383AC6
:101D00003E3E434447484B4C4E4E4F514F520305C5
:101D100006090B0C0F10121517171B1C1E2022246E
:101D200026282A2B2E3031343538393B3E3F41436B
:101D30004548484B4D4F51525557585A5E5D616268
:101D40006565696A6C6E6F737475787A7B7E7F8265
:101D50008484888A8A8E8F90949597989B9E9DA262
:101D6000A2A4A7A9AAACAEB1B2B4B6B8BABCBEC060
:101D7000C1C4C6C8C9CBCECFD2D3D5D8D9DADEDF5D
:101D8000E0E4E4E8E7ECECEFF0F3F4F7F8FAFEFD5A
:101D9000F9F9F6F4F2F1EEECEBE9E6E4E3E1DEDD8D
:101DA000DADAD6D5D3D1CFCDCBC9C7C5C3C2BFBD73
:101DB000BBBAB7B6B3B2AFADADA9A8A5A4A2A09E59
:101DC0009C9A97979492908E8C8B88868582817E40
:101DD0007C7B79767573716E6D6B69666663606026
:101DE0005D5B5958555351504D4C49474742433F0D
:101DF0003E3B3B373634322F2F2C2A2827232320F3
:101E00001E1C1B19161413100F0D0B0807040402D7
:101E10000405070A0B0E0E13121617191B1E1E229D
:101E2000232428292B2C3030343437383C3C3F4095
:101E3000434546494A4D4E515255555A595D5E608B
:101E4000636367686A6C6E7072747678797D7D8082
:101E5000828485888A8B8E8F929495979A9B9E9F79
:101E6000A1A4A5A7AAAAAEAFB1B3B5B7B9BBBDBF70
:101E7000C1C3C4C8C8CBCCD0D0D2D6D6D8DBDCDF67
:101E8000E1E2E4E6E9EBEBEFF0F2F5F6F7FBFCFF5D
:101E9000FCFCF9F6F5F3F2EEEEEAE9E8E5E3E1DF62
:101EA000DDDCD9D7D5D4D1D0CCCCCAC7C6C3C1C04C
:101EB000BDBDB8B8B6B4B1B0ADADA9A8A5A5A1A037
:101EC0009E9C9A97979491918E8B8B888684837F22
:101ED0007F7C7A79767472716E6D6A69656662600C
:101EE0005F5D5A58585452524E4D4A4A46454242F6
:101EF0003E3E3A39383433312F2E2A2A26262321E2
:101F0000201C1C1918141510100D0C0908050302CB
:101F100002030305070A0B0E1013141618191D1CD3
:101F200021212426282A2C2E30323336383A3B3FC2
:101F30003F434445484B4A4F4F535356585B5B5EB3
:101F400060616565686A6C6E7072747579797C7EA3
:101F50008082848688898D8E8F92949698999D9E92
:101F6000A0A2A3A7A7AAACAEB0B2B4B6B8B9BDBE82
:101F7000BFC2C4C6C8CACCCFCFD2D4D6D7DADCDF72
:101F8000DFE2E5E6E8E9EDECF0F2F5F5FAFAFDFC62
:101F9000FFFEFCFBFAF6F5F1F1EEEBEBE7E8E3E42C
:101FA000DFDFDDD9D8D7D3D3D0CECCCBC9C5C5C21E
:101FB000BFBFBCBAB8B7B4B2B1ADADA9A9A6A4A20F
:101FC000A09E9D9A98969492908E8D8989858582FF
:101FD000807F7B7A78767472716D6D6A67676461F1
:101FE000615D5C5B58565451514E4C4948474342E1
:101FF000413E3B3B37373331312E2B2B28262422D1
:10200000201D1B1B17171313110D0C0907060302C4
:102010000302020303040507080A0B0E101215162B
:102020001A1C1E202425282A2C2E31323536393A06
:102030003C3D4141444547494C4D50515357575BF6
:102040005C5F616366676A6C6E7171757679797DC4
:102050007E8081858588898C8E90919496999A9CB2
:10206000A0A1A3A6A8A9AEADB1B3B4B7B9BABDBE7D
:10207000C0C2C4C6C7CACBCDD1D0D4D7D7DBDCE071
:10208000E2E4E6E9ECEEEFF3F4F6F8F9FBFCFDFD33
:10209000FDFFFDFEFDFCFBF9F8F6F5F2F0EEECE8D5
:1020A000E8E3E3DFDCDCD7D7D3D2D0CDCCC9C8C6D8
:1020B000C3C3C0BFBCBABAB6B5B2B1AFACAAA8A6CA
:1020C000A4A0A09D9A989793938F8E8B8B878683DD
:1020D000837F7F7C7A79767472716E6C6A686563CF
:1020E000625E5C5B59545551504D4B4948464243E2
:1020F0003F3E3C3B38363532312E2C2B27262320D1
:102100001F1B1A1714130F0E0C09090606030402ED
:1021100003011B28590F0D010012333E0D0C060060
:102120000F455D0E0C07000A546E0D0A0800172CAF
:10213000570F0C01000D1D500D080000062E510C0C
:1021400003000009335F0F03000306496307030E12
:10215000090001010202030304040505060607073E
:10216000080809090A0A0B0B0C0C0D0D0E0E0F00C6
:102170000101000001010202010102020303020247
:10218000030304040303040405050404050506060B
:1021900005050606070706060707080807070808D3
:1021A0000909080809090A0A09090A0A0B0B0A0A97
:1021B0000B0B0C0C0B0B0C0C0D0D0C0C0D0D0E0E5B
:1021C0000D0D0E0E0F0F0E0E0F000102020100008A
:1021D00001020102030302010102030203040403DA
:1021E00002020304030405050403030405040506B1
:1021F0000605040405060506070706050506070685
:102200000708080706060708070809090807070856
:102210000908090A0A090808090A090A0B0B0A0928
:10222000090A0B0A0B0C0C0B0A0A0B0C0B0C0D0DFC
:102230000C0B0B0C0D0C0D0E0E0D0C0C0D0E0D0ED3
:102240000F0F0E0D0D0E0F00010100000102020123
:102250000000010201020201010203030201010266
:10226000030203030202030404030202030403043F
:10227000040303040505040303040504050504041D
:1022800005060605040405060506060505060707F6
:1022900006050506070607070606070808070606D7
:1022A00007080708080707080909080707080908B1
:1022B00009090808090A0A090808090A090A0A098D
:1022C000090A0B0B0A09090A0B0A0B0B0A0A0B0C69
:1022D0000C0B0A0A0B0C0B0C0C0B0B0C0D0D0C0B46
:1022E0000B0C0D0C0D0D0C0C0D0E0E0D0C0C0D0E23
:1022F0000D0E0E0D0D0E0F0F0E0D0D0E0F02020224
:1023000002020202020202020202020202020202AD
:10231000020202020202020202020202020202029D
:10232000020202020202020202020202020202028D
:102330000202020202020202020202020303030379
:102340000303030303030304040404040505050550
:1023500006060607070808090A0A0B0C0D0E0F10DF
:1023600012131516181A1C1E212326292D30343756
:102370003B4044494E53585D63696E747A80868C45
:1023800092979DA3A8ADB2B7BCC0C5C9CCD0D3D7D6
:10239000DADCDFE2E4E6E8EAEBEDEEF0F1F2F3F4AA
:1023A000F5F6F6F7F8F8F9F9FAFAFAFBFBFBFBFC9D
:1023B000FCFCFCFCFDFDFDFDFDFDFDFDFDFDFDFD51
:1023C000FEFEFEFEFEFEFEFEFEFEFEFEFEFEFEFE2D
:1023D000FEFEFEFEFEFEFEFEFEFEFEFEFEFEFEFE1D
:1023E000FEFEFEFEFEFEFEFEFEFEFEFEFEFEFEFE0D
:1023F000FEFEFEFEFEFEFEFEFEFEFEFEFE000409EA
:102400000E13171C2025292D3135393D4144484CE8
:102410004F5356595C606366696C6F717477797C51
:102420007F818486888B8D8F919496989A9C9EA0AC
:10243000A1A3A5A7A9AAACAEAFB1B2B4B5B7B8BABB
:10244000BBBCBEBFC0C1C3C4C5C6C7C8C9CACBCD4B
:10245000CECECFD0D1D2D3D4D5D6D7D7D8D9DADA39
:10246000DBDCDDDDDEDFDFE0E1E1E2E2E3E3E4E56A
:10247000E5E6E6E7E7E8E8E9E9E9EAEAEBEBECECD0
:10248000ECEDEDEEEEEEEFEFEFF0F0F0F1F1F1F15B
:10249000F2F2F2F3F3F3F3F4F4F4F4F5F5F5F5F501
:1024A000F6F6F6F6F6F7F7F7F7F7F8F8F8F8F8F8BB
:1024B000F8F9F9F9F9F9F9F9FAFAFAFAFAFAFAFA85
:1024C000FBFBFBFBFBFBFBFBFBFBFCFCFCFCFCFC56
:1024D000FCFCFCFCFCFCFDFDFDFDFDFDFDFDFDFD32
:1024E000FDFDFDFDFDFDFEFEFEFEFEFEFEFEFEFE12
:1024F000FEFEFEFEFEFEFEFEFEFEFEFEFFFFFF7087
:102500005D524B45403B3835322F2D2B2927252353
:1025100022201F1E1C1B1A1918171615141312112E
:1025200011100F0E0E0D0C0C0B0A0A0909080707F3
:10253000060605050404030302020101000002026D
:10254000020202020202020202020202020202026B
:10255000020202020202020202020202020202025B
:10256000020202020202020202020202020202024B
:10257000020202020202020202020202020280FFC0
:10258000FFFFFFFFFFFFFFFFFFFFFFFFFFFFFFFF5B
:10259000FFFFFFFFFFFFFFFFFFFFFFFFFFFFFFFF4B
:1025A000FFFFFFFFFFFFFFFFFFFFFFFFFFFFFFFF3B
:1025B000FFFFFFFFFFFFFFFFFFFFFFFFFFFF020027
:1025C000060D13191F262C32373D43484D52575CD8
:1025D0006064686C6F7275787A7C7E7F808181829E
:1025E0008181807F7E7C7A7875726F6C6864605CB4
:1025F00057524D48433D37322C261F19130D060004
:10260000FDF6F0EAE4DDD7D1CCC6C0BBB6B1ACA7CD
:10261000A39F9B9794918E8B8987858483828282E6
:10262000828283848587898B8E9194979B9FA3A7B1
:10263000ACB1B6BBC0C6CCD1D7DDE4EAF0F6FD0044
:102640008080808080808080B0B0B0B0B0B0B0B00A
:10265000DADADADADADADADAF5F5F5F5F5F5F5F502
:10266000FFFFFFFFFFFFFFFFF5F5F5F5F5F5F5F5CA
:10267000DADADADADADADADAB0B0B0B0B0B0B0B00A
:1026800080808080808080804F4F4F4F4F4F4F4FD2
:1026900025252525252525250A0A0A0A0A0A0A0AC2
:1026A00000000000000000000A0A0A0A0A0A0A0ADA
:1026B00025252525252525254F4F4F4F4F4F4F4F7A
:1026C000807F868C92989EA5AAB0B6BCC1C6CBD09E
:1026D000D5DADEE2E6EAEDF0F3F5F8FAFBFDFEFE10
:1026E000FFFFFFFEFEFDFBFAF8F5F3F0EDEAE6E290
:1026F000DEDAD5D0CBC6C1BCB6B0AAA59E98928C66
:10270000868079736D67615A554F49433E39342F3E
:102710002A25211D1915120F0C0A070504020101B3
:102720000000000101020405070A0C0F1215191D13
:1027300021252A2F34393E43494F555A61676D731D
:10274000797F808080808081838487898D91959A2C
:10275000A0A6ADB3BAC2C9D0D7DEE4EAEFF4F8FB65
:10276000FDFFFFFFFDFBF8F4EFEAE4DED7D0C9C2BE
:10277000BAB3ADA6A09A95918D8987848381808014
:102780008080807F7F7F7F7E7C7B7876726E6A65BB
:102790005F59524C453D362F28211B15100B07045D
:1027A000020000000204070B10151B21282F363DE4
:1027B000454C52595F656A6E7276787B7C7E7F7F6E
:1027C0007F7F8080808080808080808181828486FD
:1027D000898D91969CA3AAB2BBC4CCD5DEE6EDF35D
:1027E000F8FCFEFFFEFCF8F3EDE6DED5CCC4BBB290
:1027F000AAA39C96918D8986848281818080808025
:10280000808080807F7F7F7F7F7F7F7E7E7D7B79E2
:1028100076726E69635C554D443B332A2119120C64
:10282000070301000103070C1219212A333B444D11
:10283000555C63696E7276797B7D7E7E7F7F7F7F5C
:102840007F7F7F800004080C1014181C2024282D82
:102850003135393D4145494D5155595D6165696D88
:102860007175797D82868A8E92969A9EA2A6AAAE6C
:10287000B2B6BABEC2C6CACED2D7DBDFE3E7EBEF51
:10288000F3F7FBFFFFFBF7F3EFEBE7E3DFDBD7D279
:10289000CECAC6C2BEBAB6B2AEAAA6A29E9A969238
:1028A0008E8A86827D7975716D6965615D59555134
:1028B0004D4945413D3935312D2824201C1814102F
:1028C0000C08040000181A1D202225282A2D303358
:1028D00036393C3F4245484B4E5155585B5F626626
:1028E000696D7074777B7F83868A8E92969A9EA29A
:1028F000A6AAAEB2B6BBBFC3C8CCD1D5DADEE3E779
:10290000ECF1F5FAFF181A1D202225282A2D303364
:1029100036393C3F4245484B4E5155585B5F6266E5
:10292000696D7074777B7F83868A8E92969A9EA259
:10293000A6AAAEB2B6BBBFC3C8CCD1D5DADEE3E738
:10294000ECF1F5FAFF18040404040404040404047C
:102950000404040404040404040404040404040437
:1029600004040404040481FFFFFFFFFFFFFFFFFFD7
:10297000FFFFFFFFFFFFFFFFFFFFFFFFFFFFFFFF67
:10298000FFFFFFFFFFFF0404040404040404040425
:1029900004040404040404040404040404040404F7
:1029A00004040404040481FFFFFFFFFFFFFFFFFF97
:1029B000FFFFFFFFFFFFFFFFFFFFFFFFFFFFFFFF27
:1029C000FFFFFFFFFFFF04000D1A26323E49535D53
:1029D000666D747A7E81838483817E7A746D665D90
:1029E00053493E32261A0D00FAEEE1D5C9BEB4AA0B
:1029F000A19A938E898684848486898E939AA1AACB
:102A0000B4BEC9D5E1EEFA000D1A26323E49535D37
:102A1000666D747A7E81838483817E7A746D665D4F
:102A200053493E32261A0D00FAEEE1D5C9BEB4AACA
:102A3000A19A938E898684848486898E939AA1AA8A
:102A4000B4BEC9D5E1EEFA0080808080B0B0B0B0ED
:102A5000DADADADAF5F5F5F5FFFFFFFFF5F5F5F56A
:102A6000DADADADAB0B0B0B0808080804F4F4F4F02
:102A7000252525250A0A0A0A000000000A0A0A0A72
:102A8000252525254F4F4F4F80808080B0B0B0B0B6
:102A9000DADADADAF5F5F5F5FFFFFFFFF5F5F5F52A
:102AA000DADADADAB0B0B0B0808080804F4F4F4FC2
:102AB000252525250A0A0A0A000000000A0A0A0A32
:102AC000252525254F4F4F4F80808C98A5B0BCC63B
:102AD000D0DAE2EAF0F5FAFDFEFFFEFDFAF5F0EAE3
:102AE000E2DAD0C6BCB0A5988C8073675A4F4339E0
:102AF0002F251D150F0A050201000102050A0F15F9
:102B00001D252F39434F5A6773808C98A5B0BCC6DA
:102B1000D0DAE2EAF0F5FAFDFEFFFEFDFAF5F0EAA2
:102B2000E2DAD0C6BCB0A5988C8073675A4F43399F
:102B30002F251D150F0A050201000102050A0F15B8
:102B40001D252F39434F5A67738080808083878D7E
:102B500095A0ADBAC9D7E4EFF8FDFFFDF8EFE4D7D3
:102B6000C9BAADA0958D87838080807F7F7C787285
:102B70006A5F524536281B100702000207101B2807
:102B80003645525F6A72787C7F7F80808083878D34
:102B900095A0ADBAC9D7E4EFF8FDFFFDF8EFE4D793
:102BA000C9BAADA0958D87838080807F7F7C787245
:102BB0006A5F524536281B100702000207101B28C7
:102BC0003645525F6A72787C7F7F8080808080810A
:102BD00082868D96A3B2C4D5E6F3FCFFFCF3E6D55E
:102BE000C4B2A3968D868281808080807F7F7F7E25
:102BF0007D7972695C4D3B2A190C0300030C192A7C
:102C00003B4D5C6972797D7E7F7F7F808080808193
:102C100082868D96A3B2C4D5E6F3FCFFFCF3E6D51D
:102C2000C4B2A3968D868281808080807F7F7F7EE4
:102C30007D7972695C4D3B2A190C0300030C192A3B
:102C40003B4D5C6972797D7E7F7F7F800008101824
:102C5000202831394149515961697179828A929AA2
:102C6000A2AAB2BAC2CAD2DBE3EBF3FBFFF7EFE7EB
:102C7000DFD7CEC6BEB6AEA69E968E867D756D6536
:102C80005D554D453D352D241C140C0400081018CD
:102C9000202831394149515961697179828A929A62
:102CA000A2AAB2BAC2CAD2DBE3EBF3FBFFF7EFE7AB
:102CB000DFD7CEC6BEB6AEA69E968E867D756D65F6
:102CC0005D554D453D352D241C140C040018191B71
:102CD0001C1D1F20212224252628292A2C2D2F3097
:102CE0003133343637393A3C3D3F4042434546481C
:102CF000494B4C4E505153545658595B5D5E60627F
:102D0000636567686A6C6E6F71737577787A7C7EBD
:102D10008082838587898B8D8F91939597999A9CD3
:102D20009EA0A2A4A7A9ABADAFB1B3B5B7B9BBBDC7
:102D3000C0C2C4C6C8CACDCFD1D3D5D8DADCDEE193
:102D4000E3E5E8EAECEEF1F3F5F8FAFDFF186C6C58
:102D5000666F777A7A9B909D9299A2929BAB9FA285
:102D60008B8B73686F685B584F4B42423B402A2EF7
:102D70001F21232330333342374D585D71858089BD
:102D8000838E8997A4AFC3C3C7DBD3E7EDE9F8F817
:102D9000F6FFEDFDEDEBE0D0AFA48B77685D584911
:102DA00025301F130D161A251F2C2A2C302C2C37DA
:102DB0002C4B585F7E8999A89DB6C5CCC7D0CECE86
:102DC000B8BFC1AFABA4A49F949B92908B7A6C6761
:102DD0006E665F665A5D625A4E4E4E565D69756903
:102DE0006464565F6672777378757C6B6B69534C5D
:102DF000443E4C49494553534A506770787F8B9401
:102E00007F7C7E69757A839790A8ACAFC8D3DFF6D4
:102E1000FAFDFFF8F1E2DBDABEB2ADA69A8984775B
:102E20005A452D2010141E23253136343B393B449E
:102E300049505564696677839AA3AFC7C5BEC0BBC6
:102E4000BEB9C0CCC7CAD4C5CAC5B7BBA19E8D6721
:102E50007A6C55514D4D46504B46464D3E393A4899
:102E6000414D51554D5D667D929C9C98887F68616F
:102E7000595D53585859606B666C757F7D8B8F9B7D
:102E80008D877C7869686171747A77858793AFCE16
:102E9000DBF4FFFAE8D9C5BAA7B6B4B1B1AE998AE6
:102EA0007D664E4B3F3626211A121C29273C485876
:102EB0005869726F69727171849BA1ACB6CABEC247
:102EC000C2B9A9ACB2CAE0FCFCE8DBCBAEA69F8FCE
:102ED0007A644538454849495955494544343B3752
:102EE000424C4C45414262778EA1AF9E94877A74E2
:102EF0006E676A62626D767785828181818B9C9E26
:102F0000999895786E64646966707D6C6263779455
:102F1000B5D3FCFFE5CEB29487889FA29F9E958C87
:102F200074707367585046392F2F3B46413F464BCC
:102F30004E64767A7A7E8576738795A9B5DAEFD86E
:102F4000C4AD977B84A9D1FBF9FFEBC9B9ADB5A29C
:102F50007864493734456C837A624732101B3E49A6
:102F60004849391E050C457484A2A99B87898E881F
:102F70007C7D7D868D9DBCBCA7AB9F8D8F97BBB99B
:102F8000BAC5BE976B6666606182986D492F3347FC
:102F90006AB4E8F6D3AB905F3D487085837B83804D
:102FA00063607D7F6E5F655652606B8573635B4DBA
:102FB0004A63717C95A099856A79859BB0DFFFF1A2
:102FC000C1A7866B5C89BEE7E7EFE4B6A4A4BAAB01
:102FD000796449303C4F7E8684614E2F18254B52D0
:102FE000534E3C1C0E1553748BA1A4908488867F8D
:102FF0007775757C8A9BB7B3A7A993868895B6B772
:10300000C3C6BD8E676765646F939E6A47333B5145
:103010007BC1EBEAC7A48B5B3F4E6D787A767F7BF2
:1030200063627871645C604F545D6D7D7564584D6A
:1030300054677880A2A59780737E8E9DBAE6FFE6DE
:10304000C4A5876C6391BFE1E9E6D7AC9FA2B19FAD
:10305000765F4430435F878A885B4B231D334C4B3C
:1030600051482D1010185775919E9A8B8683807B3E
:10307000736D717D8EA1BCB7ACAD8C878CA0BAC4CA
:10308000D9D9B98A6669647184A6996142353B5C75
:103090008DD3E8E5B7A47F513C505E6F6E787579AB
:1030A0005D636E715F61574E555C658A77695155F6
:1030B000586E7A8DADAA947C6F8086A5C4F3FFDC30
:1030C000BA9E76686C9EC5E3EBE2C6A69CA2B1935D
:1030D000715836324351737E93845C422D4C4F6558
:1030E00073636E533722171F46789ABDB5A68E5F5D
:1030F0004D3A45606EA2A9B7AD8761525B7DAABE0D
:10310000DBE1B9A070737F98A8A2A4927E60362DEF
:10311000427DA3E1FFF9FAC1814F2B343F6981A5BC
:10312000AD997E4C3F2D3647455E5C696D443D311F
:10313000334D6586ABB19F8C63535F6D99B2EDF8EB
:10314000EDDDB1948675607394C2FDF1F8E7D4C3E8
:103150008A685047525153628087877453373A4C7C
:103160005F756F6E6A4B352321335F8AA9BAB495B8
:10317000785F45425966859AAEB2977A5B55678605
:10318000AAC3D1CFAD8274708DA3A19FA18C8154AD
:103190003D325381B5E9F9FFEDB16F443C3A607EB1
:1031A00094AEA2916F433A33424552635F6C5F40E5
:1031B000403439536F91A8A79976625359738ABEE8
:1031C000ECFAEDCFAE8D82685E769BCCEDEEEEDA5A
:1031D000D4A97E604852537A8999A7B4C3CFDBE45F
:1031E000ECF4FAFEFEFBF8F3ECE1D6CABBAC9D8E24
:1031F0007F706053463A312A2723222429303641F2
:103200004D58646F7D8B98A3ADB7C0C7CDD1D2D1D7
:10321000CDC9C3BAAFA39789796A5A4D3E302419F4
:103220000E0603010100030B17212B37475563736B
:1032300082919EAAB6C3CAD0D6D9DBD7D4D0CAC190
:10324000B6ACA0928375675B50453B35302C2B2C78
:103250002F353C4753606D7A7F838B969FA5A8AD31
:10326000B2B5BABEBFB9B2AEAAA3978E877C6F6261
:103270005749382B231A120B0606020001060D17B8
:103280002029313B45515E6A747C828A939B9EA3C0
:10329000A6A8A7A5A39D938A847F776C635C574EED
:1032A0004745423F42474B4C515F6B747D8A97A024
:1032B000A8B5C7D2DBE3ECF2F5F7F9FEFAF8F3ECC8
:1032C000E3DAD1C7BAADA1978C827970665F5A599B
:1032D0005857585B60656E777F857C7A87938C75CD
:1032E000685F5A5D666C6658514D41322F363B3BE4
:1032F0003B3B2D19100B0E171B20261D0B02001235
:103300002B3B362F29262B2D3841413F44515A580B
:103310005D636A68687378736F7887877C7C87954C
:10332000979AA0A09EA0B0BEBBC0D0DDDBD0CBD012
:10333000C9C0CDEFFDFDF6F2EFEBE2E2EBE9EBE920
:10334000E9E4DDD2C7B9B5BEC7C2B7B0A5958E93C3
:103350009E9E958A817C757E878584939DA7A79B79
:1033600089755E514C515966738393A1B0C0C6C133
:10337000B4A28C766B666E7E8DA5B5C2C6C0B4A1B4
:103380008D7F7570737F91A6BBC6D3DADEE2DDD385
:10339000C5AE9C8A7B777E8FABC8E6F9FFF5DDB9B9
:1033A0008F694D3D3E4A607B919FA5A7A19A968D5E
:1033B00085776454453429241F20263546505355BB
:1033C0004A35221B2122130F1C2A3A465B778D9225
:1033D000948F7F6C5E5856596475848F938D918D50
:1033E0006E57402C272C3A38323A3C464F556A707B
:1033F0006155553C211D111B272342575D645957C8
:103400004D3C4D5551535B6A8BA6A0ACB0A6B4B0F1
:103410009E977C726C64615D708797B4C5CFCFC78F
:10342000B9A08D7E747C8397B9CFCFCDDCD6CFDCAD
:10343000CFCDBD918B87746E6A5B443C5168685DEB
:10344000726C49365BBDD8875D749BB6AABBECFF36
:10345000E8E2E6D3BFB0A8A085818D8F878B787412
:103460007965564F5652536E5F4A5648444C434C0A
:103470004F473F454834313831292C3529403D21CB
:1034800040392C4F5D5A525B5E617C6E657062699B
:103490006D5F665A576A666468696D6E7982808E60
:1034A0009B9EA4AFB1B1BBB8BFCDD3CBBBD2D1BF74
:1034B000DDD5CBCEACA9ACA9A49B957B68707B7302
:1034C00068797B65628AE5FFBB95A4BFCFBBBEDA96
:1034D000DEC6BEC8C2B5BEB8A5999288876A997C77
:1034E00071999E797FBA907AC8A776BD9E86B79C5F
:1034F0009FA4AF9883B5826AAC7F4E9888299F833A
:103500001293662B70676139696D257A6E32695E38
:103510005060546D604889775B98898999A7BEA2ED
:10352000C5DFC5D6E7EADFEFEDF0F8FBF6C5F9F940
:10353000ACFFEFB2DCC39C8DA1835D675026252BC9
:103540001F19222319162B5866423136454D424425
:10355000525448445A543F7770386E80546A619789
:10356000866FABBF8FA0F0B191F3C697F3C9ACF3F0
:10357000D3C9D7EAC6A6F3BC94F2B972DDC342D070
:10358000B42FBF8A4B8771763E75821E75792E6681
:10359000664E6354727055968167AB9993B2B4CD01
:1035A000B2CEE8C4D8F1E8DDF1E8E8EBECE8B1E848
:1035B000EF8DE8DB8CC5B68E7289723A4B451611D9
:1035C00009060A000A03060A030A0A0A090A0A0A7D
:1035D0000A0A0A010A20140A4E3F0A5D71446185F5
:1035E00070B94DBDDD5FA3FC735FFD8383FF7F6F0B
:1035F000FDCA80ECE57D6AFFDA5DFDD944E6DF3F78
:1036000082C6797776956343AC4F44B86744B07C03
:103610003A636A83304D8795596299678357C36DC2
:103620007DCA7D8F768DEC8FB2E88D8FACB58D6ABB
:103630008DCA548F9D548A6FB06352A9342C792956
:1036400042013662006C23346A206A676A606A6CE1
:103650006A6C6A6C0F6C791A6A83326C9F548F851E
:10366000B836FF21D2FD1CA3FF1A18FD1E66FF11FC
:1036700017FDB413FFD01011FFFD10FDFF07E5FD8E
:10368000420BD7E80C59FF2F05F86D04FFD905FD53
:10369000F3046397B4041CACEF0438E2056105D76A
:1036A0000504E50405041CD5056ACB0405475C0444
:1036B00005048B04053D053205DE5204F83605C9C4
:1036C00050940589EA10FF5C86FD57FDF6FDE5FC88
:1036D000FFFDFFFDFF2FFFFD31FDD025FFFD2DFD7F
:1036E000B88473655D57585D646D7172706D676500
:1036F0006364677079859099A0A19D9488796A61C7
:103700005E616D7A8B9BAAB5BCC1C3C4C3C1C0C086
:10371000C3C5C9CCC9C3B7A6947F6C5A4B413B3AC9
:103720003B3E43454849484544464E5C6F869FB6FC
:10373000CBDBE9F1F3EFE6D9C7B39E8C7B6F635522
:1037400047392C1E140A0300020A1626394D6071EF
:103750007D878B8E8F959EA9B4BDC5C8C7C1B5A501
:10376000948476747174767478828B939E9A978E13
:10377000827D8082909EA5ACAFACA8A395866F5049
:103780003B2F2631404E61717B8B9CACC2D2D7DE81
:10379000E2E3EAF6FDFFFAE7D0B89C8B79685F5365
:1037A000474545454B4C453D2F211F242D4055662F
:1037B0007B8EA1BFD5E3EFEFE7DBCBB8ADA092875F
:1037C000725C5042342D1F150E0A101F32455A6884
:1037D0007176797B7F797979787980879099958EE0
:1037E000877976657F92A6B2ADADB2B5C0D1D1CDA5
:1037F000C7B2ADB0ADB9C8C0B9B09F9895867B6C63
:10380000482D1804040C0C131B1A2D4A638CADBCF4
:10381000CAD1D1DDECF3FDFFEADBCCB9B9B5ABA978
:103820009D87827D767A78685C462B241F181F1F3F
:1038300018181D2446657F9DADB0B9BCBCC7C5C076
:10384000BEB09C9A9390958C807A716A787F878EAF
:10385000897A6F6562675B4F412718181824373CD7
:10386000434D526566859CB3C1BCB9BBB9C0CFCFCF
:10387000CECBBAB6B9B5BBC3B6AB9F8B84837B78CE
:1038800071584535211A1B1211100A172E446986EA
:1038900094A2A8A6AFBBC0CACEC3BEB9B3BCC2C1B6
:1038A000C5BDAAA59F959895877C6A524B43363231
:1038B0002713080100172F4462747E8E9BA6B8C0A0
:1038C000C1C6C0B5BBBCC0C9C6C0BBB2A9AEADAA5B
:1038D000A69782736560625649381C090400091A6C
:1038E000222E404C666B8FAEC9D9D6D4D5D4D8E041
:1038F000DEDAD8CFCFD3D1D4D6C4AF9B857D7D7C43
:103900008184796E614D4239281C100309192B47B7
:103910005B646B6F6F778082898A8281878FA8BB97
:10392000C6D0CABBB3A697918C837F776E71747330
:10393000746C594C4444576C7F95A3A9B4B9BCC36B
:10394000BEB3A796848281848E9093989790908935
:103950007F7464544C4B54605E56462B140800042C
:10396000111926394B6B7199BFDCECECEBECEBECED
:10397000ECE5E2E1DFE3E9EAEAE4CEB1967F7476D2
:103980007D8B999C9A9080705E452F1703000B17D2
:103990002732323133363E424242403E42506A8FF5
:1039A000B1C8D4D4CABDAB9589827E81858B9AAAD1
:1039B000B4BCB5A4968E8F9EAEBCCAD0D4D6D5D199
:1039C000CABAA08467504744464E5763717A7671ED
:1039D000615140312626334A606965573F261407F6
:1039E000070E1524374F717DA6CADBDFD6CECACAB3
:1039F000CDCDCDCCCACAC9C9CBCDCEC5B19A847400
:103A00006F727F909FA6A59C8B755A402819151F31
:103A10002B3231291C15141618191B1D222A3A5352
:103A20007391ACBFCBCEC7B59F8C817F8490A4BD72
:103A3000DAF3FFFBECDBCECBCFD7DFE4E6E7E3DA6C
:103A4000CEBBA58B705B4D443F3C3B3F48535A591E
:103A50005245382C23202231485E6E7471645340E5
:103A600030241B182134547D88AFC3BCA6887064F1
:103A700065718290989386726666748BA2AFAA9ADB
:103A8000816B5B575B666E74736B5C4C3D363A487A
:103A90005E727E7C6E5945393437404D5D69717276
:103AA0006D686A7890ABBFC6C1B3A39488848A9DC1
:103AB000B8D8F3FFFBEAD4C0B3AEAEB2B9BFC1BE53
:103AC000B4A59589868B97A3A9A79C8C7A6B5F5523
:103AD0005150535A6266635B55545964717C8283BA
:103AE0007C6A50331D1A2F588885B0C6C6B9A18B81
:103AF00081878E959D9E90775D5253607892A29FAC
:103B0000978B7E767A85949DA3A29278614F433DF0
:103B100042525B5D584F3E2C272F3D4B5C72838891
:103B2000888787858B9AA8AFABA18E7A6D66656A08
:103B30007F9FC2DDEFF9F3E5DBD9D7D0CED2D4CE6B
:103B4000C5B9A68D7872767E8891948E88817A71B7
:103B50006A6F767A8389887A695B4E45464C505005
:103B6000504A36200C00031B4C857C929DABB9BAA1
:103B7000B7BBC5C0ADA1967F604A484A4D57666F36
:103B8000758195A5B1C3D7E2E7EAE8D5B6A09587D8
:103B900070615746322B3135323D5C778493A6B342
:103BA000AFAEB6BEB7A99B876E58493A2B293238BB
:103BB000374258697285A2B6C4D3E9EEE0D0CCC6CC
:103BC000B3A49B8D735B52514D4C55606A7A909CA7
:103BD0009EA3B6C8CDD2D3C7AA937F63432F26181E
:103BE0000C0A0801000B1D2937577C648CBDA88185
:103BF0007A6475BFD6D2D09256504C6CACAE9A8FC8
:103C00005F4F7B9ABDE0BF94846672AEBDB7B3745C
:103C10003D38304C81755E4F1F124878ADDAC4A034
:103C20008F6B78B4C9D0C98958575277AFA38E77B4
:103C30003521486393B89475654565AAC1CEBF79AF
:103C40005149467EB6ADA1844643657AB3D0A68B72
:103C5000704669ACC9E9E5A47F6C5F8DB69F895D4C
:103C600013061D3770825E4917003A645E86C09D58
:103C7000655C4155AFCED3D68C4A535982D3D4B666
:103C8000A15F467A96BBE2B06E542C3A87A4ABB0E3
:103C900066272C2A529E997E68281A5987BEF2CD33
:103CA000967A4E5EA7BECBC97E4A545990DED7BDE8
:103CB0009A442B576FA3CF9761431434829CB3A9C6
:103CC0005121202470BEC0BC9C4E4B788ED0F1B3E5
:103CD000855D27509CB9DFD9865B524C91D3C6B421
:103CE00080281E3D5FAAC28F6A26003A5E7A8591BF
:103CF0009CA7B1BCC5CDD5DBE0E4E6E5E6E5E1DFB8
:103D0000DBD8D1CBC5BDB7B1ACAAA8A8A8A8A9A932
:103D1000AAAAAAAAAAADAFB2B4B6B9BCBFC1C5C758
:103D2000C8C8C7C7C4C2BCB6ADA49B8E8274685C49
:103D30004E41362B21180F080502000002070D1313
:103D40001B242C363D454E545C60676C7073737455
:103D500073706C69686562605F5C5955514D494587
:103D6000413E3B38383B3E4348515A64707A7D8926
:103D70009195A0B0C5D5DEE6E9ECEFF2F2F0E1D125
:103D8000C3BCBFBFBCB3A79EA3ADB9C3C8C8C9CB92
:103D9000CCCCC8C0BCBFC5C9D4E3F0FBFFFCF8F273
:103DA000E9E4DED8D5D1C9BCAD9D979A9E9B8B71B5
:103DB000553C281F1F2221160C070D1B2D393F3C97
:103DC00036343943515555575755514E4C4E4E4E3A
:103DD0004E483C2D211F212A343A33251610131C3E
:103DE0002B373C3A332D2B2A282A36485C717D87A5
:103DF000877F797F8D9DAEBBC1BEB9C0C7C7C0A24A
:103E00008972646E777B776D66738DA1AFB5B4B739
:103E1000B7BDC1BEB2A8A4A9AAB7CCE1EFF0E4DA5D
:103E2000CBBEB8B0A9A4A29A8A766866738A948C2D
:103E300070523C2C2F425B6D706C70839FBCCECE59
:103E4000C1AB988F939A9687796C5F54453C39380B
:103E50003A373022120100081C303C372514132059
:103E600039597581837E71685E544C5163738187C3
:103E7000867D787B8E989CADC9DFDFDCF1FFFCEEA0
:103E8000CEB9A28D919192948B83828D928A8783F1
:103E900083848DA2AEA796847F7B808D959C9B8E1C
:103EA0008B868B929592929692847264564F4F4F66
:103EB000442E1D0F040716344E5F6A7B90A6B7BDD3
:103EC000BBB2A391827D7F7867584D4643403F4403
:103ED0004B514D4847443F3D404D585F5D5B595DF8
:103EE0006B8096A6ADB1B1A99F91867D7D868489B0
:103EF000868378747E9499909CBAD5D8D6EFFFFBD0
:103F0000ECD5CBBBA7A69F9FA49F988C88806960A7
:103F10005B595B637D919282695E57555551524E54
:103F200045484E606F77797E85867E746B5A443241
:103F30002A2117151410111A2F465D7084959D9F24
:103F40009C97969085766D6A63564C45464C5359BE
:103F5000616C727070788185848485858689929C75
:103F6000A4ADB8BEBFC0C4C8C5C0B4ACA4A19F9125
:103F70008B838D746F7D95998990ACC5C3BED7E650
:103F8000DFCAAEA99B828484848E8E8E8E97A59084
:103F900084898E949EBCD3CEBEA582625A584A377D
:103FA000332C231E2831332E37465361727F7D72A6
:103FB000645A535354585D64646262686D798EA28A
:103FC000A5A09D957D6A5B54514C413325252C302D
:103FD0002E3545483E3533353F464A4C545F626D79
:103FE00084A4C1DFF4FFFBF6F4EFEDEAECE6E6E3D0
:103FF000C8AC8D9277747F8685777174776D686EA3
:10400000706A5C4F5454484F5858616A76869BBF1B
:10401000BDB4C6D2D7DDEAF5E7E6E3B68B7F7C6AAE
:10402000494849362519150A0006162A4C799DB3C8
:10403000C3C6BDC0CFD7DDEDF6EAC8A48B777079D3
:104040008C918E8E8362545151515252493D3A3F68
:104050003A2E303736271807000A181E1F303F4007
:10406000455E88ADCCEAF9F3E3DAD4D8E7F5F9FC9C
:10407000F9E1BC92CBE4E9929D9202173C27212101
:1040800009102F4E235F221C6938A197CFB4D09519
:10409000DC87C1A0EBDAEEA463EEDDE6EFEDEDEC3C
:1040A000ECE886E4EECACEA9D1CC6FCDE6AB8BA00E
:1040B0008D6D62332E50000A271E050C026A4C10CB
:1040C000524E6F2D1C7F410B03290201440C1C2E04
:1040D00031312E29453938524E60604A6871C6EA3E
:1040E000ECD1DED5E2DFDFE3E5C2B7E4E3D3ABAC8E
:1040F000C3C9AC70CB60454E78B0BE8F4B4D6E7966
:1041000056705D9BD4D8CCAA8793C1CED9C3B49E38
:10411000A9C6C7BEBAC2A3B3A29B9E8D746F798194
:10412000756C866F59545C6F7158314D101036584C
:104130004E22020A315720604F24112754654A222B
:104140003C22122A3E3A32282C3F5D1B424E514AF5
:104150004E5956566463756C748DB4B89E8F8A8FB1
:10416000F6FDF1D3B2B8D8FEFDFBFCD1E6FFF6B008
:104170009CC5F7FDF6609E4C62697DAAA168608BC4
:104180007D5D73756297C9BD956D70A9E8DACBC086
:10419000A596ADBAAAA5A39288958D7977787A76F7
:1041A000633A29394B515043333445555C564330BB
:1041B000313A3F3B2F200F101D2F3935302E35401F
:1041C000546869594943414856584F413E454D56F8
:1041D000636764646D747281898084A9C2AD9798A5
:1041E000B1E9FEFEFFDDC3D5FCFEFEFEF9D7E5FD1D
:1041F000E5AAB1DFF1E09EA9705B666C84947D60F6
:104200006B7669666C687AABBBA88D8197C0C9BFB5
:10421000B6A79598A7A59C99928B8C89776A6F729F
:104220006F634935384A595B55473E4758605C5083
:104230003D30313C443F32221F273749514E4443E1
:104240004C5A6B7269564A484C565E5B524F535BF0
:10425000606B73726E7077787F8584859BB5B9A823
:10426000A1ACCBEEFFF8E1C7C3DBF8FDF4EEDED97D
:10427000E7E1B59FAEC5C5A9808E9DABB9C7D3DDBB
:10428000E7EFF5FAFEFFFFFEFBF7F2EBE4DBD3C945
:10429000BFB5ACA39B938B85807B78757473747565
:1042A000777A7D8185898D9195989B9D9FA0A09F10
:1042B0009E9C9996928E8984807B76716D696663E7
:1042C00061605F5F606264676A6E72767A7E828523
:1042D000888A8B8C8B8A8784807A746C645C534A5E
:1042E0003F362C241B140D080401000001050A10A0
:1042F00018222C38465462718080BEEAF5E4C4A7C7
:104300009EAAC5E2F7FFFEF8F0E8DBC7AD978D93F4
:10431000A6BDCAC3A681645B6D8FB2C5BEA4826B05
:10432000687A96B0BBB6A59180767069636067784D
:1043300090A4A99772492C2C4C7FB3D3D3B68D6827
:10434000565B6F87989F9C968F897F6E5A49444F22
:10435000698597947D5B413A4D7092A49B7E593C50
:104360003542596C7268523824170F070100081D36
:104370003A5561583B1B0A15418080C7F6FFE6BCE1
:10438000988996B4D7F0FBFAF4EEE7DAC6AC968ECD
:1043900099B5D6E9E4C69B7A7187B1DBF0E7C59A97
:1043A0007A7385A3BCC6BAA2856E5F544A3F3B436D
:1043B00058758F97845B2C0E133C7FC3ECF1D3A40C
:1043C0007B68708AA7BCC4C0B5ABA0917A5D453943
:1043D000435C7A8C85653A180F244E788E85643953
:1043E0001B16294A66716953392518110B05040FEC
:1043F000284B69766743190009388080ABC3C1AC8C
:104400009792A6CBEFFFF3D4B4A5AFCBE6EEDDB920
:1044100096858FACC9D5C7A8897D8BACCCD9CDADDD
:104420008D7F89A5BFC7B58F69555A738B927F5C05
:10443000392A365677867E644B45597FA6BAB49B97
:10444000817988A9C9D5C6A3806D748CA5AA9670F8
:104450004A38405A768072523226335374827657E5
:10446000382A3653707A694622111934505A4B2B28
:104470000C011034596D68533E3C54808093A6B7AC
:10448000C9D8E4EFF7FCFFFFFDF9F3EBE2D8CEC4A7
:10449000B9AFA79F999592908F8F90929496989983
:1044A000999895918C857D73695E52463A30271FA5
:1044B00019151314181E27313E4E5E6E7F91A1B15F
:1044C000C1CED8E1E7EBECEAE6E0D8CFC5B9ADA1C3
:1044D000968C827A736E6A67666667696B6D6F70B9
:1044E000706F6D6A66605850463B31271D140C068C
:1044F0000200000308101B273648596C808095A9DC
:10450000BDCFDFEBF5FCFFFFFCF6EEE3D6C9B9ABA0
:104510009C8F8379716A676566686C72787F878D16
:104520009397999A98958E867C7063544636291C89
:104530001109030000030A14203042566A7F95A92E
:10454000BDCFDFEBF5FCFFFFFCF6EEE3D6C9B9AB60
:104550009C8F8379716A676566686C72787F878DD6
:104560009397999A98958E867C7063544636291C49
:104570001109030000030A14203042566A8080B9F2
:10458000E0EBDFCBC0C7DAEBECD8B79B93A6CAEE63
:10459000FFF4D3AD928B939D9983644B49638FBC99
:1045A000D6D3BA9B84808991896E462519294B6E92
:1045B0008077593722213143483C271922477FB859
:1045C000DDE6D8C3B7BCCEDEDDC8A6887F91B4D601
:1045D000E6DAB991766E767F7B64452C2943709C30
:1045E000B6B49B7C66626C746D522C0B011135590C
:1045F0006C644827131425383F3420141F468080EC
:10460000A9CBDBD8C7AD96898C9DB9D9F2FFFDED5A
:10461000D5BAA69B9AA0A9B0B2AEA4978C8480808C
:104620007F7D79716A66687180919FA5A194806D84
:1046300061627089A6BFCDCAB59673574A4E627F34
:104640009DB1B5A88C694A35323F59768F9D9E92AF
:104650007F6B5E5A606E7F8E9799958E8682808082
:104660007F7B73685B514D4F565F656459452A12D5
:1046700002000D264662737669523827243456802C
:1046800080C8F8FFE3B68F808AA7C5DAE4E7EBF3CA
:10469000FAF9E7C59E848095B7D2D7C29A7461674C
:1046A0007F98A291704D3E4B6F99B7BDAB8C7267EE
:1046B0006B7781878A91A4BDD2D5BD8B522A2445C0
:1046C0007FBADBD5AD74422A2D425B6E75787E8849
:1046D00094988D735442486690B4C1B28F6E5D67F2
:1046E00080989E8B653D282D486A7F7B613A18062D
:1046F000050C14181B253A58757F70491C000737A4
:104700008080C5F3FFEAC5A39294A3B2B8B4AEAE5D
:10471000B5C2CCCABCA99C9EB1CADBD7BC9472639B
:104720006E8BA8B5A887634B4B607D949B92827774
:104730007884939B9A938E929CA7A48D64371A1DBC
:10474000437FBCE2E5C89B725B58636D716C656426
:104750006C7B87887D6D646B829FB4B49C78574A6C
:104760005774919C8D6B432824354E6163564335B5
:10477000333D4A51514B474D5C6B6D5C3A15010C12
:104780003A8080BFEDFFF6DDC2B1ACAFB3B3AEA8E7
:10479000A7ADB4B8B3A490827F8A9BA8A7977F697E
:1047A000616A7F95A09A8772666A7C92A2A59C8DA9
:1047B000838189939A9A958F8C8D8D836B4A2A1A5F
:1047C00023497FB6DCE5D5B5947C727273706A6557
:1047D000656C767E7C72635A5D6D8395998D786584
:1047E0005F6A7F959E96806858576475807D6F5B81
:1047F0004C474B525857514C4C50534E3D22090197
:10480000124080797F848991959AA0A5ABAFB1B50C
:10481000BAC0C2C6CBCFD4D8DBDCDAD6CBB5A08D3C
:104820007250392715080003101C293C556B7A87F4
:1048300095A0A3A3A2A09E9B9795979495989490DA
:104840008E887E736961564D4847494C505B697448
:104850007C878E9497938E8A847A726964615E599C
:104860005C6060616465686967696B6F72747980A8
:10487000878B91949A9B9995928D88807A777471A1
:1048800071737579BACDD9E7F6FAFAFFFFF5EAE464
:10489000DACBBDB3A6998F877B736E686059565289
:1048A0004D494646474A4D5159616A747B848E95FD
:1048B0009A9B9FA09E9B9A96918F8B858383827FE4
:1048C00080848586898C8E8F9193929193918F8E1F
:1048D0008E8D8988878583827F7B7975706A656014
:1048E0005A5754535251525455565758595959576B
:1048F000565452504F4E4C4B484848464C565C63B9
:10490000748895A5BAACCDDEF3FBDEBFAC87594306
:104910003A2F2A38464C5C6A7377818683868C8A64
:10492000868381786F68625856595D64707C848E86
:104930009596928D867B736F6A696D73777D868895
:10494000898A8984817E7B77787B7C81898F929626
:1049500098948F898176716E6D6F7A848E9AA5A8EE
:10496000A8A8A399928A8178787774757B807E86CF
:104970008F959CACB8BBC6CDC1AEA1865736291069
:104980000015344B74ACBDD2DDE9F7FFFBF3ECE26C
:10499000CFBAA5948471615955514C4D55595C60FD
:1049A000686D71777D828991989EA5ADB2B3B3B2DF
:1049B000AFA89D91867C6E6058554F4C4D53585F03
:1049C00066707A828A929AA0A5A9ADB1B2B2B1AE50
:1049D000AAA39A93897D726B635D585555555658B5
:1049E0005C6063676A6D707173737372706E6A670F
:1049F000635E5955524F4A4A4B48484C4F4F5058A6
:104A00006067778792A6BD878F95969594959CA0B1
:104A1000A2A9ABA9A4A2A1A4ABAEB3BCBFBEBDBDAD
:104A2000C0C0C6CECFC6A685652D000A2223376B2F
:104A30008E8F8F999EA2A9B5C2C0B19E7B4E363291
:104A400027223C5D686E79848A919CACB9BFBCAC6E
:104A50008F74634F393C4D54555B64646368748252
:104A60009198959188745C52504B4E53565C5F5DA3
:104A7000616C787F858D8D877F76737372737577A0
:104A800076716B6D73797F878F8E949DA2A9B2BB6F
:104A9000C3C7D5E2E2E4EEEEEAE5F6E5CCDAD4BF50
:104AA000B7B09890817A68594D3F3E3B2121291E2D
:104AB00016252525293445464B5E6F7480949FA5A5
:104AC000B0C2C9C7D0DCE0DBD6DEDCCBC8CFB5A630
:104AD000A5978B7A6C5F5447392C2B220D2115003A
:104AE0000D1C151320242A37464E535C6870757BC5
:104AF000847E89928A8C8E8B9089898B7C88837C3A
:104B0000837A7B817B8380818F909FA3A7B7C0BE70
:104B1000CDE1CFBBD9EAC6BBD0BE9EA7B1916F7025
:104B20007A634042502F132C330C001D20101A1DA5
:104B30002333313B4B505A656B707579818989837A
:104B40008B908C8A8B8A858889817E82817D7E7E0E
:104B50007C7C888A838A929A9EA6ACB1BEC2CADA4D
:104B6000DADDE7E3EAE5D5E7F2CDB8CFCFA497A643
:104B70008E6C6875663F33494021273B20123843CD
:104B8000282E495152626E727C90747A797B7F7DB7
:104B9000777270727374787C818183878A8D8C8A36
:104BA0009091949A9EA5AEB7B5B6C6C2C6CFC9CDF0
:104BB000C5BBBDBEBDBABEC0BDA579676435002505
:104BC00067645473989B9DB1C1BDA17F63565C51CE
:104BD000343551544C6A94A2A2A9AAA39E90786835
:104BE000615444435561637189959CA5A3998E7E58
:104BF0006A5A4C373642444C606B7883868A897C8B
:104C0000716962554F50565D646A74BADCBA8AA500
:104C1000EAFFE6DAD5B4969E9F81717D72452944FC
:104C2000738A7E6A697E9CB4C0BDB0AAAFA997970B
:104C3000A89F7150525F6467645143516B787C85C3
:104C400090908A8C9BAAAC9E8D807A7D84806E60C9
:104C5000606362677686979A8C8DA5C0C1AC989484
:104C60009697948579757066636B7877685D626CEA
:104C700077797269696F7573716F695C55595A54A8
:104C80004E463F3E4245423E41557CBACADD9B827C
:104C9000CBFFDDBACFEBDFC5C9DED3A08AADC091B3
:104CA00060667C7964524E575C575A66645B6784D1
:104CB0008F837F91ACB6A99DA6B2B0A7A59C8E8923
:104CC0008E8C7C675F676F635250596A7C77626F26
:104CD0009EAE9E9CADB8C0C8BFB3B4BBB7AA9A89FC
:104CE000878A7E615255564B3C31313B3B333334DE
:104CF0003B4B4F424357635E58565B676758525D64
:104D000065554A545B5A60768C816379CA94A1B325
:104D1000D3D7CFECFFEAE3EEEAC9B9CFA86B828D17
:104D20004E36422E2927181E1F273542504836710D
:104D30007D2E4A9E5C4D856D70777B897571919251
:104D400073809788829087878E838A877489877318
:104D500080787681757C85737B95806F8B9C83844E
:104D600096919F8A9FC97691E5A282C0CCB3B9CAB9
:104D7000D3DCD9DAD2BEBEA9A3A3634E73531A24DF
:104D80002E0E02141B0C1238433C59778194C0BE7E
:104D900096C0FBD1BEEAFFEBEFFAF2EFF1EBECE8E5
:104DA000C8BED7C9A397A7927382865B4763614148
:104DB0003E4236343C3C3733313F534C3B4F645FCB
:104DC0006179776B7F9C988E98A3A6B2BBBAB6B177
:104DD000C4D5BFB7D6D0BDCECEB5B5C0B7A49C9E06
:104DE000998A827D6A5D5F5E493B3F3D323333285D
:104DF00023312C32291D372B332D3C2C3A473F359C
:104E00004A41484E4351656F625B81A48684C0D39A
:104E1000EECA8498F3FFA15B637C776B6F6D62666B
:104E20008BB1C5C2A994A6CBC0865A5B6B675D5F88
:104E3000605C6988A2A99F91909FA8967560626640
:104E40006361615C5C6D869697918F96A1A2937E5B
:104E5000727170727D7A6D819D9C9FA99F9DA095B6
:104E6000887D6E6F76726B70787F868786837B74A1
:104E70007472665C5A626869646871746D6C6E689D
:104E800064615E5F5C54575D5C5957575F78A7D388
:104E900083B0D4EBF3EDDDC9B5A398918E89827A06
:104EA000726D6B6E7885939FA7A9A7A0968C827C64
:104EB0007673727374747372706C6763646B7787E4
:104EC00099A7ADA79479593A2214141F3246596B09
:104ED0007F93A8BCD0E2EEEEE0C7A8896D5B545A80
:104EE000697A8A969D9E9B96918F8E8D8D8E8F8EE0
:104EF0008B867F766B615B595B626E7D8A9397953B
:104F00008F877F7874706A5E4D3824150F162F5581
:104F10008384ACCCE1EAE6D7C4AF9E918A868077E1
:104F20006B5B4B3D3538465E7A96AEBCBEB5A48E03
:104F300077645B5C636C767D807F7C7B7F899AADD8
:104F4000C0CDD1CAB596704C2E1C171E2E42566786
:104F500075818D9AABC0D4E4EBE5D3B6916C4D3836
:104F60003034425568788286858281858C959FA6EB
:104F7000A69D8B745D4C4346536B88A4BBC9CCC5BE
:104F8000B7A6978A827C777064523D2A1C171F3718
:104F90005B848397A5ADB2B6BBC2CDD9E3E6E4DFAF
:104FA000D7D1CECFCFCBC2B5A6988E8884807A7069
:104FB00064574E4B4E535655514C494C545E687095
:104FC00074737070757E889095938C8684868A8EB3
:104FD000908C83787273777C7D7B756F6D7179832C
:104FE0008C91918E8D9199A3AEB5B8B5B0ACABAFA5
:104FF000B3B6B3AA9D9187817D7973695B4C3F36C7
:10500000323233302A231D1B1F28343F474B4F5465
:105010005E6E838BAFB1A8B1B48E595EA5E0D19D11
:1050200095BDD8C39D81674E5481ACB0A097844F85
:1050300026428BAB8F7C9AB7A177799CA584677445
:105040009AB9BC9F735B677D83879CA6814C4D7D1D
:105050008854305C9FA88686ACB4865C6179818573
:1050600098A590634348698E987D5E668789624BF8
:105070006685735775BEDCB27D696252547FAEB4EB
:105080009A80653F29436D6530205DA4A7734E501B
:105090005854618B87A0A4A0A7AA947579A7CEC6FF
:1050A000A7A3BED0C5AE9D8E7F84A1BDC0B6B2A65B
:1050B000866C7EABC0AEA2B4C7B89E9EB3B8A290B9
:1050C00096ADC0C1AE918086929595A1A68D6A6A73
:1050D000868B68506A92957E7D9396785C5E6B6F46
:1050E0006F7A8172543F41556B705E4A4F62634ADA
:1050F0003B4C5F54425583957C5B4F4B42445F7EF3
:10510000827364543D30435E5A3B335A888C6D57EA
:105110005A61606B87838D92959A9D9C999EAAB6E1
:10512000B8B5B7C0C7C8C5C3C2C1C4CCD3D5D5D51F
:10513000D4CFCACED7DBD8D5D8DBD7D1CFD2D1CB3D
:10514000C6C5C7C9C8C1B8B1AFAFACA9A7A59C9225
:105150008F928F837A7C817D7470716F665D5A59EE
:1051600055525250494039383B3D3B363030323051
:105170002A26292C2A262A3337332D2C2C2C2E355F
:105180003D403F3E3C3A3A414A4D494B5764686581
:1051900064686C7077839CA2A997898C9595979287
:1051A00094919CA0ABAFAAA69D8C7B7885868589BF
:1051B000858D9DA2AFAC94674A4F5759585E5A638C
:1051C000666E6762585E6253483337374769787353
:1051D0006B8DA19E86635B4F4852536390B1B39031
:1051E000828A8F85747B7E798982BEDFFDFFE5C16F
:1051F000D0F0B5806577949075859EBFFDF9A26665
:10520000392C242028394A7EAAA57E6C79714E3724
:105210003D4645586E6C9C95AEB7C4AA8B849EDA09
:10522000E1B665303C72BBFFF39D64737F69524BFE
:10523000566472809EBBAAA6988071688AAE9B72E3
:10524000505E64585B677DAFC8B68E726D86959E62
:10525000C3C892706C88A19C8F6291B1A1885B33A6
:105260004C421F26519DC4CBCAB3A4A3A8C19B85A1
:105270005C64A5D5A35F4F81A265412036405E677F
:105280005517023D7A7C462C325065663C1C3E70B8
:1052900094A295A2B2B39C958FA5A07B7EA0BCCB17
:1052A000CCE9FAFFFBD2A295A5BDC2B8ABACBFBD9D
:1052B000AEA19FA39C947F6B7185A09D6C36364EEA
:1052C00059564426233C53523D3B546B71716260E6
:1052D0005B5D696F6240495E87908268615A625E79
:1052E0005E575C6D81817A7A98CBCDB596A3C5D691
:1052F000C79186807B8E8C716F7F9186644D3D3A1D
:105300004559766F523F53727769533642728183A3
:105310007D8896A1968886878F84A1C7CCBEAEB2C1
:10532000C9C4BAC9E1DDD6CFB7A49B9E9F88796A6C
:105330006C797E7E776A50536A6A635349523F1B89
:10534000000910102D413B303C677E776B778C9EB7
:105350009780797E7E8C7E867E80979E917E524A53
:105360007E837357647E89897E84B2E0ECD8B7D49B
:10537000E7EAC9AC969B8D7E796673828773614C30
:105380005468797E795E4E504E47495B64646E8402
:105390008473737E8B98917E7B8483909BA5AEB73C
:1053A000BFC7CED4D9DEE2E5E7EAECECEBEBEBEC01
:1053B000ECECECEAE7E5E3E0DDD9D5D2CECAC7C430
:1053C000C1BEBCBBB9B7B5B5B5B4B2B1AFADAAA794
:1053D000A5A39F9A9794918D8884817E7974706D2E
:1053E0006B67625E5C5A575452514F4D4C4D4C4A5C
:1053F00048474543403D3A37332F2C2824211E1D72
:105400001A17151515161616161516171A1D202318
:10541000282E333A424B535C67758385B1D0DFDE6B
:10542000D6CECBCFD5DBDEDEDCDBDCDFE3E8EBE8C2
:10543000DFD5CDC7C2BCB4A99C8E85828386878503
:10544000817D78736F6A68696B6C6B6B6C70767D4D
:10545000848787837E7B797978787A7F85898A8843
:105460008887837E7A7A7E848C9295969696979892
:105470009997938E8985807C7B7B7E7F7C73665831
:105480004D46403A342C221A17191E23262725236D
:1054900023262D3336332B222232568584BDE2EF6C
:1054A000EADBC9BBB7BCC0BFB6ACA29B989A9FA2AF
:1054B000A09A96969AA0A4A7A7A3998C7F767273B8
:1054C000777D807E7A74706C6B6D70747779797883
:1054D00074727379818685807A7572747C878F8EF9
:1054E00087807C7C81888E908D8988888A8D919533
:1054F0009695918D888382858A8E8F8B8275685E62
:105500005A5A5D62676B6B67625F62686A665F5674
:105510004B4241464A4639271712214A845E6D8024
:1055200097B0CBE1F6FDFFF9EBDBC5AE9074563CCE
:105530002D211E1C22272F3C4958616C6F74777DEA
:1055400083868E939BA2ACB5BBC3C4C5BCB2A799DE
:105550008A7565524337312F30373E4B5967758115
:105560008F979FA3A5A6A5A59F9F9C9B9795949079
:105570008E8B88807C736962595750504F51575FAA
:1055800069707E86939A9FA7A9ABA6A69D97928CD9
:1055900088817D7B736E64584A434049555E89819A
:1055A0007D7A7670665A4A4540464F5D6D8097B069
:1055B000CCE2F6FFFEFAEADCC5AF9072563B2C1F38
:1055C0001D1B21252D3B4857616B7073797D8587A5
:1055D0008F939BA3AAB6BBC4C2C1BAB2A597887663
:1055E00064504237302F2D373E4C5A65778492975E
:1055F000A0A3A6A8A5A5A09E9B9B97959492908BEF
:105600008880797168635A564F4F4F515A626A7356
:10561000808B939EA3AAAAAAA6A29E96928C897515
:1056200076767B7F868D949EA3A9AAAAA69E968C49
:1056300083776F6762605F63666B6F7175757367A1
:105640005D5658647692ACC6D9E6F0FAFFECD1B15B
:105650009072584739322F323B4551575B59555557
:10566000555A606A77889DB1C4D2DADAD1C5B2A141
:105670008A7562514944464A52595D64656A6A6B4B
:105680006D6D7177838F9DAAB3BBBDBEB8AEA0917F
:105690008372675D585555595C63666D7072757598
:1056A00077787873685C617291B3D2EAF6FFFCF5A3
:1056B000DBB88A5E3D241F202B343F4F5E6D74772C
:1056C0007672727B8C9EB1BDC9CBC7C0AC9777593F
:1056D00041302B2D3843546473838C9292928D9079
:1056E000959BA3A7ABA7A69D90816D5B48413D41CB
:1056F0004A576572818E999D9B9B96959192919147
:10570000918E8A8780766A6055504E5359656F7BBB
:1057100088919A9B9E9A948D878480807B7A7771FA
:1057200077887F706B63645D635F6A6B7D899EAC15
:10573000BDCFDBEAEFFCF9FEF1EBD6C6AF9D826C84
:10574000553F2E1A120507000807121727303D4C47
:105750005762677377807D86818681858286868A97
:1057600090959FA2AEB1BEBEC6C5CAC4C2B9B3AA07
:105770009F93857C6B6653524441383B373B3B419A
:10578000494E5E5F6B6E797D86858A8C8C8D8C90A0
:105790008E928D939097939A999E9B979B969D93AB
:1057A0008D8876675658667F9FBED3E7F4F9F0D4AC
:1057B000B07B4B260B010009203E6388A7BCC3C009
:1057C000B7AA9F91887E797A7F83878078685A51BB
:1057D0004845464B5E718DA7BBCACDCAC0AD9A7E07
:1057E00066534541464E5C6875838C929494918DC6
:1057F0008B8C8D909192928E8B84786D61595353DE
:1058000058626D7B8B9AA4AAADA8A094887E746B15
:105810006766686B7075797B7B7D7F7F808284890A
:1058200087807670747C7E847C715B575A7597C3D1
:10583000E3FEFFF8EDDAD0C1BBAFABA2A3A2A6A7EF
:105840009C8B6B4E2A170B0C14212D353F414B4B73
:105850004E4B4F5058677D9BAFC7CED5CDC4B8AC2B
:10586000ABA4A7A4AAA3A29A958775635044393B19
:105870003B474C53585A5C5A5D5B61656C76849328
:105880009EAFB4B7B3B0A8A49E9C9C9C9E9A9B95D7
:1058900092857C70655C5656535C5D676569686887
:1058A00068676D7063717E96A8C6D6EEF5FFF6F157
:1058B000E4DBCBB8A8948977746C746C726C7269F1
:1058C00069625B5141352622101209120F1B2233E7
:1058D00041536472838A979BA8A4ABA4A9A1A39EF9
:1058E000A3A4A8ABADB7B4BBB7BEB4B2A29E8E8220
:1058F00073685E534E4348424D4955555D5B626344
:10590000646565686569656D6B777783889498A130
:10591000A8AAB2B1B6AFB2A9A19C918D83715F5014
:10592000474A4E5F63657D93AAB8BFC2BAB3A193DD
:10593000877E79787E828D8E8F8A7F6E5A4C3F3F2C
:1059400042536575858F928D8579746F717B8CA0BC
:10595000ACB9B9B0A2928378736E75788083848471
:105960007D7569645A5C5B626B747F878E8F8F89EB
:1059700085827F8283879194978F836C56444451AC
:105980006F99C8EDFFFEE2BB8D6951516585ABC7CC
:10599000D6C8AC7D4E2509071333516F838A8476B0
:1059A00067554E4E5C65A49890837C7870706464F3
:1059B00054564D544A51474F4146414A484E4E4F26
:1059C00056545D5D6A6A78757E81837B7A676A5515
:1059D000819DB9BEB9AFABB7CAE4EEF5E4E3D8E652
:1059E000EAFFF5F4D8CCBCC0BDB9AE9B83706C6344
:1059F00067595439321D251E291D1B0908040D1431
:105A00001B201D202031394F52645F706D83889DAB
:105A10009DA9A5AFB0B7C1C7CAC4CAC4CEC5D1C4B9
:105A2000CBB6BAABB2A4A45F7DABCBC39D74677F8A
:105A3000BEEDFFDDA87D7EA1D6F3EBBF91797F9F00
:105A4000BAC5AD8F6A5E5C707A8174644E3F373937
:105A5000445059544730272641596E6C5F443C43AB
:105A60006181938F7D6C66728DABB2AE9B90889690
:105A7000A6BCBEBCA89D93969CA6A9A69A8D827929
:105A800081848F8B8772655A606B7878705C4F4D1C
:105A900054646E73675F535962737A8178766E735C
:105AA00079838D897C665A5F7CB4D7D09E654053DC
:105AB0008FDBFFF4B56C41487EBADDC99352292AC9
:105AC0004B768D8D714E352F3F5974828A8277695E
:105AD000626C7F9FB5C1B2967B707C98B6C0B28D68
